{
  "contractName": "AccessControl",
  "abi": [
    {
      "inputs": [],
      "stateMutability": "nonpayable",
      "type": "constructor"
    },
    {
      "anonymous": false,
      "inputs": [
        {
          "indexed": false,
          "internalType": "address",
          "name": "admin",
          "type": "address"
        }
      ],
      "name": "AdminAdded",
      "type": "event"
    },
    {
      "anonymous": false,
      "inputs": [
        {
          "indexed": false,
          "internalType": "address",
          "name": "vendor",
          "type": "address"
        }
      ],
      "name": "VendorAdded",
      "type": "event"
    },
    {
      "inputs": [
        {
          "internalType": "address",
          "name": "",
          "type": "address"
        }
      ],
      "name": "isAdmin",
      "outputs": [
        {
          "internalType": "bool",
          "name": "",
          "type": "bool"
        }
      ],
      "stateMutability": "view",
      "type": "function"
    },
    {
      "inputs": [
        {
          "internalType": "address",
          "name": "",
          "type": "address"
        }
      ],
      "name": "isVendor",
      "outputs": [
        {
          "internalType": "bool",
          "name": "",
          "type": "bool"
        }
      ],
      "stateMutability": "view",
      "type": "function"
    },
    {
      "inputs": [
        {
          "internalType": "address",
          "name": "_admin",
          "type": "address"
        }
      ],
      "name": "addAdmin",
      "outputs": [],
      "stateMutability": "nonpayable",
      "type": "function"
    },
    {
      "inputs": [
        {
          "internalType": "address",
          "name": "_vendor",
          "type": "address"
        }
      ],
      "name": "addVendor",
      "outputs": [],
      "stateMutability": "nonpayable",
      "type": "function"
    }
  ],
  "bytecode": "0x608060405234801561000f575f80fd5b5060015f803373ffffffffffffffffffffffffffffffffffffffff1673ffffffffffffffffffffffffffffffffffffffff1681526020019081526020015f205f6101000a81548160ff021916908315150217905550610503806100715f395ff3fe608060405234801561000f575f80fd5b506004361061004a575f3560e01c806324d7806c1461004e57806345e0f7531461007e578063704802751461009a578063ee54d54f146100b6575b5f80fd5b610068600480360381019061006391906103a9565b6100e6565b60405161007591906103ee565b60405180910390f35b610098600480360381019061009391906103a9565b610102565b005b6100b460048036038101906100af91906103a9565b610218565b005b6100d060048036038101906100cb91906103a9565b61032e565b6040516100dd91906103ee565b60405180910390f35b5f602052805f5260405f205f915054906101000a900460ff1681565b5f803373ffffffffffffffffffffffffffffffffffffffff1673ffffffffffffffffffffffffffffffffffffffff1681526020019081526020015f205f9054906101000a900460ff1661018a576040517f08c379a000000000000000000000000000000000000000000000000000000000815260040161018190610487565b60405180910390fd5b6001805f8373ffffffffffffffffffffffffffffffffffffffff1673ffffffffffffffffffffffffffffffffffffffff1681526020019081526020015f205f6101000a81548160ff0219169083151502179055507f187ea8b96b8ec4b770e46a85aa7421402f105827e5d2bb0705259f060c6043cb8160405161020d91906104b4565b60405180910390a150565b5f803373ffffffffffffffffffffffffffffffffffffffff1673ffffffffffffffffffffffffffffffffffffffff1681526020019081526020015f205f9054906101000a900460ff166102a0576040517f08c379a000000000000000000000000000000000000000000000000000000000815260040161029790610487565b60405180910390fd5b60015f808373ffffffffffffffffffffffffffffffffffffffff1673ffffffffffffffffffffffffffffffffffffffff1681526020019081526020015f205f6101000a81548160ff0219169083151502179055507f44d6d25963f097ad14f29f06854a01f575648a1ef82f30e562ccd3889717e3398160405161032391906104b4565b60405180910390a150565b6001602052805f5260405f205f915054906101000a900460ff1681565b5f80fd5b5f73ffffffffffffffffffffffffffffffffffffffff82169050919050565b5f6103788261034f565b9050919050565b6103888161036e565b8114610392575f80fd5b50565b5f813590506103a38161037f565b92915050565b5f602082840312156103be576103bd61034b565b5b5f6103cb84828501610395565b91505092915050565b5f8115159050919050565b6103e8816103d4565b82525050565b5f6020820190506104015f8301846103df565b92915050565b5f82825260208201905092915050565b7f4f6e6c792061646d696e2063616e20706572666f726d207468697320616374695f8201527f6f6e000000000000000000000000000000000000000000000000000000000000602082015250565b5f610471602283610407565b915061047c82610417565b604082019050919050565b5f6020820190508181035f83015261049e81610465565b9050919050565b6104ae8161036e565b82525050565b5f6020820190506104c75f8301846104a5565b9291505056fea2646970667358221220af7c826dffa9f7eb9ddeaee86f774abd9bda554ef10082a79a10dbfc880b7dba64736f6c63430008150033",
  "immutableReferences": {},
  "source": "// SPDX-License-Identifier: MIT\r\npragma solidity ^0.8.0;\r\n\r\ncontract AccessControl {\r\n    mapping(address => bool) public isAdmin;\r\n    mapping(address => bool) public isVendor;\r\n\r\n    event AdminAdded(address admin);\r\n    event VendorAdded(address vendor);\r\n\r\n    constructor() {\r\n        isAdmin[msg.sender] = true;\r\n    }\r\n\r\n    modifier onlyAdmin() {\r\n        require(isAdmin[msg.sender], \"Only admin can perform this action\");\r\n        _;\r\n    }\r\n\r\n    modifier onlyVendor() {\r\n        require(isVendor[msg.sender], \"Only vendor can perform this action\");\r\n        _;\r\n    }\r\n\r\n    function addAdmin(address _admin) public onlyAdmin {\r\n        isAdmin[_admin] = true;\r\n        emit AdminAdded(_admin);\r\n    }\r\n\r\n    function addVendor(address _vendor) public onlyAdmin {\r\n        isVendor[_vendor] = true;\r\n        emit VendorAdded(_vendor);\r\n    }\r\n}\r\n",
  "sourcePath": "F:\\hackathon\\menu-voting-system\\menu-voting\\contracts\\AccessControl.sol",
  "compiler": {
    "name": "solc",
    "version": "0.8.21+commit.d9974bed.Emscripten.clang"
  },
  "schemaVersion": "3.4.16",
  "updatedAt": "2024-03-30T10:57:19.044Z",
  "devdoc": {
    "kind": "dev",
    "methods": {},
    "version": 1
  },
  "userdoc": {
    "kind": "user",
    "methods": {},
    "version": 1
  }
}