{
  "contractName": "MealRating",
  "abi": [
    {
      "inputs": [],
      "stateMutability": "nonpayable",
      "type": "constructor"
    },
    {
      "anonymous": false,
      "inputs": [
        {
          "indexed": false,
          "internalType": "uint256",
          "name": "id",
          "type": "uint256"
        },
        {
          "indexed": false,
          "internalType": "address",
          "name": "reviewer",
          "type": "address"
        },
        {
          "indexed": false,
          "internalType": "uint256",
          "name": "rating",
          "type": "uint256"
        },
        {
          "indexed": false,
          "internalType": "string",
          "name": "review",
          "type": "string"
        }
      ],
      "name": "MealReviewed",
      "type": "event"
    },
    {
      "inputs": [
        {
          "internalType": "address",
          "name": "",
          "type": "address"
        }
      ],
      "name": "isAdmin",
      "outputs": [
        {
          "internalType": "bool",
          "name": "",
          "type": "bool"
        }
      ],
      "stateMutability": "view",
      "type": "function"
    },
    {
      "inputs": [
        {
          "internalType": "uint256",
          "name": "",
          "type": "uint256"
        }
      ],
      "name": "mealReviews",
      "outputs": [
        {
          "internalType": "uint256",
          "name": "id",
          "type": "uint256"
        },
        {
          "internalType": "address",
          "name": "reviewer",
          "type": "address"
        },
        {
          "internalType": "uint256",
          "name": "rating",
          "type": "uint256"
        },
        {
          "internalType": "string",
          "name": "review",
          "type": "string"
        }
      ],
      "stateMutability": "view",
      "type": "function"
    },
    {
      "inputs": [
        {
          "internalType": "uint256",
          "name": "_rating",
          "type": "uint256"
        },
        {
          "internalType": "string",
          "name": "_review",
          "type": "string"
        }
      ],
      "name": "reviewMeal",
      "outputs": [],
      "stateMutability": "nonpayable",
      "type": "function"
    },
    {
      "inputs": [
        {
          "internalType": "uint256",
          "name": "_reviewId",
          "type": "uint256"
        }
      ],
      "name": "getMealReview",
      "outputs": [
        {
          "internalType": "uint256",
          "name": "",
          "type": "uint256"
        },
        {
          "internalType": "address",
          "name": "",
          "type": "address"
        },
        {
          "internalType": "uint256",
          "name": "",
          "type": "uint256"
        },
        {
          "internalType": "string",
          "name": "",
          "type": "string"
        }
      ],
      "stateMutability": "view",
      "type": "function"
    }
  ],
  "bytecode": "0x608060405234801561000f575f80fd5b506001805f3373ffffffffffffffffffffffffffffffffffffffff1673ffffffffffffffffffffffffffffffffffffffff1681526020019081526020015f205f6101000a81548160ff021916908315150217905550610c93806100715f395ff3fe608060405234801561000f575f80fd5b506004361061004a575f3560e01c806324d7806c1461004e578063349fda671461007e5780634f67ccae1461009a57806396cd341b146100cd575b5f80fd5b61006860048036038101906100639190610563565b610100565b60405161007591906105a8565b60405180910390f35b61009860048036038101906100939190610730565b61011d565b005b6100b460048036038101906100af919061078a565b610286565b6040516100c4949392919061084d565b60405180910390f35b6100e760048036038101906100e2919061078a565b610419565b6040516100f7949392919061084d565b60405180910390f35b6001602052805f5260405f205f915054906101000a900460ff1681565b6001821015801561012f575060058211155b61016e576040517f08c379a0000000000000000000000000000000000000000000000000000000008152600401610165906108e1565b60405180910390fd5b5f808054905090505f60405180608001604052808381526020013373ffffffffffffffffffffffffffffffffffffffff16815260200185815260200184815250908060018154018082558091505060019003905f5260205f2090600402015f909190919091505f820151815f01556020820151816001015f6101000a81548173ffffffffffffffffffffffffffffffffffffffff021916908373ffffffffffffffffffffffffffffffffffffffff1602179055506040820151816002015560608201518160030190816102419190610af9565b5050507f26e22c2d503c3a0469ed3c38cf42f06f838e2211feecb597cd0ea2d1323cca6681338585604051610279949392919061084d565b60405180910390a1505050565b5f805f60605f8054905085106102d1576040517f08c379a00000000000000000000000000000000000000000000000000000000081526004016102c890610c12565b60405180910390fd5b5f8086815481106102e5576102e4610c30565b5b905f5260205f2090600402016040518060800160405290815f8201548152602001600182015f9054906101000a900473ffffffffffffffffffffffffffffffffffffffff1673ffffffffffffffffffffffffffffffffffffffff1673ffffffffffffffffffffffffffffffffffffffff168152602001600282015481526020016003820180546103749061092c565b80601f01602080910402602001604051908101604052809291908181526020018280546103a09061092c565b80156103eb5780601f106103c2576101008083540402835291602001916103eb565b820191905f5260205f20905b8154815290600101906020018083116103ce57829003601f168201915b5050505050815250509050805f01518160200151826040015183606001519450945094509450509193509193565b5f8181548110610427575f80fd5b905f5260205f2090600402015f91509050805f015490806001015f9054906101000a900473ffffffffffffffffffffffffffffffffffffffff16908060020154908060030180546104779061092c565b80601f01602080910402602001604051908101604052809291908181526020018280546104a39061092c565b80156104ee5780601f106104c5576101008083540402835291602001916104ee565b820191905f5260205f20905b8154815290600101906020018083116104d157829003601f168201915b5050505050905084565b5f604051905090565b5f80fd5b5f80fd5b5f73ffffffffffffffffffffffffffffffffffffffff82169050919050565b5f61053282610509565b9050919050565b61054281610528565b811461054c575f80fd5b50565b5f8135905061055d81610539565b92915050565b5f6020828403121561057857610577610501565b5b5f6105858482850161054f565b91505092915050565b5f8115159050919050565b6105a28161058e565b82525050565b5f6020820190506105bb5f830184610599565b92915050565b5f819050919050565b6105d3816105c1565b81146105dd575f80fd5b50565b5f813590506105ee816105ca565b92915050565b5f80fd5b5f80fd5b5f601f19601f8301169050919050565b7f4e487b71000000000000000000000000000000000000000000000000000000005f52604160045260245ffd5b610642826105fc565b810181811067ffffffffffffffff821117156106615761066061060c565b5b80604052505050565b5f6106736104f8565b905061067f8282610639565b919050565b5f67ffffffffffffffff82111561069e5761069d61060c565b5b6106a7826105fc565b9050602081019050919050565b828183375f83830152505050565b5f6106d46106cf84610684565b61066a565b9050828152602081018484840111156106f0576106ef6105f8565b5b6106fb8482856106b4565b509392505050565b5f82601f830112610717576107166105f4565b5b81356107278482602086016106c2565b91505092915050565b5f806040838503121561074657610745610501565b5b5f610753858286016105e0565b925050602083013567ffffffffffffffff81111561077457610773610505565b5b61078085828601610703565b9150509250929050565b5f6020828403121561079f5761079e610501565b5b5f6107ac848285016105e0565b91505092915050565b6107be816105c1565b82525050565b6107cd81610528565b82525050565b5f81519050919050565b5f82825260208201905092915050565b5f5b8381101561080a5780820151818401526020810190506107ef565b5f8484015250505050565b5f61081f826107d3565b61082981856107dd565b93506108398185602086016107ed565b610842816105fc565b840191505092915050565b5f6080820190506108605f8301876107b5565b61086d60208301866107c4565b61087a60408301856107b5565b818103606083015261088c8184610815565b905095945050505050565b7f526174696e67206d757374206265206265747765656e203120616e64203500005f82015250565b5f6108cb601e836107dd565b91506108d682610897565b602082019050919050565b5f6020820190508181035f8301526108f8816108bf565b9050919050565b7f4e487b71000000000000000000000000000000000000000000000000000000005f52602260045260245ffd5b5f600282049050600182168061094357607f821691505b602082108103610956576109556108ff565b5b50919050565b5f819050815f5260205f209050919050565b5f6020601f8301049050919050565b5f82821b905092915050565b5f600883026109b87fffffffffffffffffffffffffffffffffffffffffffffffffffffffffffffffff8261097d565b6109c2868361097d565b95508019841693508086168417925050509392505050565b5f819050919050565b5f6109fd6109f86109f3846105c1565b6109da565b6105c1565b9050919050565b5f819050919050565b610a16836109e3565b610a2a610a2282610a04565b848454610989565b825550505050565b5f90565b610a3e610a32565b610a49818484610a0d565b505050565b5b81811015610a6c57610a615f82610a36565b600181019050610a4f565b5050565b601f821115610ab157610a828161095c565b610a8b8461096e565b81016020851015610a9a578190505b610aae610aa68561096e565b830182610a4e565b50505b505050565b5f82821c905092915050565b5f610ad15f1984600802610ab6565b1980831691505092915050565b5f610ae98383610ac2565b9150826002028217905092915050565b610b02826107d3565b67ffffffffffffffff811115610b1b57610b1a61060c565b5b610b25825461092c565b610b30828285610a70565b5f60209050601f831160018114610b61575f8415610b4f578287015190505b610b598582610ade565b865550610bc0565b601f198416610b6f8661095c565b5f5b82811015610b9657848901518255600182019150602085019450602081019050610b71565b86831015610bb35784890151610baf601f891682610ac2565b8355505b6001600288020188555050505b505050505050565b7f496e76616c6964207265766965772049440000000000000000000000000000005f82015250565b5f610bfc6011836107dd565b9150610c0782610bc8565b602082019050919050565b5f6020820190508181035f830152610c2981610bf0565b9050919050565b7f4e487b71000000000000000000000000000000000000000000000000000000005f52603260045260245ffdfea2646970667358221220c6a3e754f19bf68fb881a39f31e0a574b0551bd6c7a6880cfcd2a03f88e527ce64736f6c63430008150033",
  "immutableReferences": {},
  "source": "// SPDX-License-Identifier: MIT\r\npragma solidity ^0.8.0;\r\n\r\ncontract MealRating {\r\n    struct MealReview {\r\n        uint256 id;\r\n        address reviewer;\r\n        uint256 rating;\r\n        string review;\r\n    }\r\n\r\n    MealReview[] public mealReviews;\r\n    mapping(address => bool) public isAdmin;\r\n\r\n    event MealReviewed(uint256 id, address reviewer, uint256 rating, string review);\r\n\r\n    constructor() {\r\n        isAdmin[msg.sender] = true;\r\n    }\r\n\r\n    modifier onlyAdmin() {\r\n        require(isAdmin[msg.sender], \"Only admin can perform this action\");\r\n        _;\r\n    }\r\n\r\n    function reviewMeal(uint256 _rating, string memory _review) public {\r\n        require(_rating >= 1 && _rating <= 5, \"Rating must be between 1 and 5\");\r\n        uint256 id = mealReviews.length;\r\n        mealReviews.push(MealReview(id, msg.sender, _rating, _review));\r\n        emit MealReviewed(id, msg.sender, _rating, _review);\r\n    }\r\n\r\n    function getMealReview(uint256 _reviewId) public view returns (uint256, address, uint256, string memory) {\r\n        require(_reviewId < mealReviews.length, \"Invalid review ID\");\r\n        MealReview memory review = mealReviews[_reviewId];\r\n        return (review.id, review.reviewer, review.rating, review.review);\r\n    }\r\n}\r\n",
  "sourcePath": "F:\\hackathon\\menu-voting-system\\menu-voting\\contracts\\MealRating.sol",
  "compiler": {
    "name": "solc",
    "version": "0.8.21+commit.d9974bed.Emscripten.clang"
  },
  "schemaVersion": "3.4.16",
  "updatedAt": "2024-03-30T10:57:19.051Z",
  "devdoc": {
    "kind": "dev",
    "methods": {},
    "version": 1
  },
  "userdoc": {
    "kind": "user",
    "methods": {},
    "version": 1
  }
}