{
  "contractName": "MenuVoting",
  "abi": [
    {
      "inputs": [],
      "stateMutability": "nonpayable",
      "type": "constructor"
    },
    {
      "anonymous": false,
      "inputs": [
        {
          "indexed": false,
          "internalType": "uint256",
          "name": "id",
          "type": "uint256"
        },
        {
          "indexed": false,
          "internalType": "string",
          "name": "name",
          "type": "string"
        }
      ],
      "name": "MenuItemAdded",
      "type": "event"
    },
    {
      "anonymous": false,
      "inputs": [
        {
          "indexed": false,
          "internalType": "uint256",
          "name": "itemId",
          "type": "uint256"
        },
        {
          "indexed": false,
          "internalType": "address",
          "name": "voter",
          "type": "address"
        }
      ],
      "name": "Voted",
      "type": "event"
    },
    {
      "inputs": [
        {
          "internalType": "uint256",
          "name": "",
          "type": "uint256"
        }
      ],
      "name": "hasVoted",
      "outputs": [
        {
          "internalType": "bool",
          "name": "",
          "type": "bool"
        }
      ],
      "stateMutability": "view",
      "type": "function"
    },
    {
      "inputs": [
        {
          "internalType": "address",
          "name": "",
          "type": "address"
        }
      ],
      "name": "isAdmin",
      "outputs": [
        {
          "internalType": "bool",
          "name": "",
          "type": "bool"
        }
      ],
      "stateMutability": "view",
      "type": "function"
    },
    {
      "inputs": [
        {
          "internalType": "uint256",
          "name": "",
          "type": "uint256"
        }
      ],
      "name": "menuItems",
      "outputs": [
        {
          "internalType": "uint256",
          "name": "id",
          "type": "uint256"
        },
        {
          "internalType": "string",
          "name": "name",
          "type": "string"
        },
        {
          "internalType": "uint256",
          "name": "votes",
          "type": "uint256"
        }
      ],
      "stateMutability": "view",
      "type": "function"
    },
    {
      "inputs": [
        {
          "internalType": "string",
          "name": "_name",
          "type": "string"
        }
      ],
      "name": "addMenuItem",
      "outputs": [],
      "stateMutability": "nonpayable",
      "type": "function"
    },
    {
      "inputs": [
        {
          "internalType": "uint256",
          "name": "_itemId",
          "type": "uint256"
        }
      ],
      "name": "vote",
      "outputs": [],
      "stateMutability": "nonpayable",
      "type": "function"
    },
    {
      "inputs": [
        {
          "internalType": "uint256",
          "name": "_itemId",
          "type": "uint256"
        }
      ],
      "name": "getMenuItem",
      "outputs": [
        {
          "internalType": "uint256",
          "name": "",
          "type": "uint256"
        },
        {
          "internalType": "string",
          "name": "",
          "type": "string"
        },
        {
          "internalType": "uint256",
          "name": "",
          "type": "uint256"
        }
      ],
      "stateMutability": "view",
      "type": "function"
    }
  ],
  "bytecode": "0x608060405234801561000f575f80fd5b50600160025f3373ffffffffffffffffffffffffffffffffffffffff1673ffffffffffffffffffffffffffffffffffffffff1681526020019081526020015f205f6101000a81548160ff021916908315150217905550610e8e806100725f395ff3fe608060405234801561000f575f80fd5b5060043610610060575f3560e01c80630121b93f14610064578063138daaa51461008057806324d7806c1461009c5780632a5a8c63146100cc578063ecca031f146100fe578063f943eecd1461012e575b5f80fd5b61007e60048036038101906100799190610601565b610160565b005b61009a60048036038101906100959190610768565b610259565b005b6100b660048036038101906100b19190610809565b610393565b6040516100c3919061084e565b60405180910390f35b6100e660048036038101906100e19190610601565b6103b0565b6040516100f5939291906108f0565b60405180910390f35b61011860048036038101906101139190610601565b61046a565b604051610125919061084e565b60405180910390f35b61014860048036038101906101439190610601565b610487565b604051610157939291906108f0565b60405180910390f35b60015f8281526020019081526020015f205f9054906101000a900460ff16156101be576040517f08c379a00000000000000000000000000000000000000000000000000000000081526004016101b590610976565b60405180910390fd5b5f81815481106101d1576101d0610994565b5b905f5260205f2090600302016002015f8154809291906101f0906109ee565b91905055506001805f8381526020019081526020015f205f6101000a81548160ff0219169083151502179055507f030b0f8dcd86a031eddb071f91882edeac8173663ba775713b677b42b51be44b813360405161024e929190610a44565b60405180910390a150565b60025f3373ffffffffffffffffffffffffffffffffffffffff1673ffffffffffffffffffffffffffffffffffffffff1681526020019081526020015f205f9054906101000a900460ff166102e2576040517f08c379a00000000000000000000000000000000000000000000000000000000081526004016102d990610adb565b60405180910390fd5b5f808054905090505f60405180606001604052808381526020018481526020015f815250908060018154018082558091505060019003905f5260205f2090600302015f909190919091505f820151815f015560208201518160010190816103499190610cf3565b506040820151816002015550507fc1cc9f74cd9aebc17cc733d9e2236c0a3f95368fb7bdc9fe84da3abb25a179238183604051610387929190610dc2565b60405180910390a15050565b6002602052805f5260405f205f915054906101000a900460ff1681565b5f81815481106103be575f80fd5b905f5260205f2090600302015f91509050805f0154908060010180546103e390610b26565b80601f016020809104026020016040519081016040528092919081815260200182805461040f90610b26565b801561045a5780601f106104315761010080835404028352916020019161045a565b820191905f5260205f20905b81548152906001019060200180831161043d57829003601f168201915b5050505050908060020154905083565b6001602052805f5260405f205f915054906101000a900460ff1681565b5f60605f808054905084106104d1576040517f08c379a00000000000000000000000000000000000000000000000000000000081526004016104c890610e3a565b60405180910390fd5b5f8085815481106104e5576104e4610994565b5b905f5260205f2090600302016040518060600160405290815f820154815260200160018201805461051590610b26565b80601f016020809104026020016040519081016040528092919081815260200182805461054190610b26565b801561058c5780601f106105635761010080835404028352916020019161058c565b820191905f5260205f20905b81548152906001019060200180831161056f57829003601f168201915b505050505081526020016002820154815250509050805f015181602001518260400151935093509350509193909250565b5f604051905090565b5f80fd5b5f80fd5b5f819050919050565b6105e0816105ce565b81146105ea575f80fd5b50565b5f813590506105fb816105d7565b92915050565b5f60208284031215610616576106156105c6565b5b5f610623848285016105ed565b91505092915050565b5f80fd5b5f80fd5b5f601f19601f8301169050919050565b7f4e487b71000000000000000000000000000000000000000000000000000000005f52604160045260245ffd5b61067a82610634565b810181811067ffffffffffffffff8211171561069957610698610644565b5b80604052505050565b5f6106ab6105bd565b90506106b78282610671565b919050565b5f67ffffffffffffffff8211156106d6576106d5610644565b5b6106df82610634565b9050602081019050919050565b828183375f83830152505050565b5f61070c610707846106bc565b6106a2565b90508281526020810184848401111561072857610727610630565b5b6107338482856106ec565b509392505050565b5f82601f83011261074f5761074e61062c565b5b813561075f8482602086016106fa565b91505092915050565b5f6020828403121561077d5761077c6105c6565b5b5f82013567ffffffffffffffff81111561079a576107996105ca565b5b6107a68482850161073b565b91505092915050565b5f73ffffffffffffffffffffffffffffffffffffffff82169050919050565b5f6107d8826107af565b9050919050565b6107e8816107ce565b81146107f2575f80fd5b50565b5f81359050610803816107df565b92915050565b5f6020828403121561081e5761081d6105c6565b5b5f61082b848285016107f5565b91505092915050565b5f8115159050919050565b61084881610834565b82525050565b5f6020820190506108615f83018461083f565b92915050565b610870816105ce565b82525050565b5f81519050919050565b5f82825260208201905092915050565b5f5b838110156108ad578082015181840152602081019050610892565b5f8484015250505050565b5f6108c282610876565b6108cc8185610880565b93506108dc818560208601610890565b6108e581610634565b840191505092915050565b5f6060820190506109035f830186610867565b818103602083015261091581856108b8565b90506109246040830184610867565b949350505050565b7f416c726561647920766f74656420666f722074686973206974656d00000000005f82015250565b5f610960601b83610880565b915061096b8261092c565b602082019050919050565b5f6020820190508181035f83015261098d81610954565b9050919050565b7f4e487b71000000000000000000000000000000000000000000000000000000005f52603260045260245ffd5b7f4e487b71000000000000000000000000000000000000000000000000000000005f52601160045260245ffd5b5f6109f8826105ce565b91507fffffffffffffffffffffffffffffffffffffffffffffffffffffffffffffffff8203610a2a57610a296109c1565b5b600182019050919050565b610a3e816107ce565b82525050565b5f604082019050610a575f830185610867565b610a646020830184610a35565b9392505050565b7f4f6e6c792061646d696e2063616e20706572666f726d207468697320616374695f8201527f6f6e000000000000000000000000000000000000000000000000000000000000602082015250565b5f610ac5602283610880565b9150610ad082610a6b565b604082019050919050565b5f6020820190508181035f830152610af281610ab9565b9050919050565b7f4e487b71000000000000000000000000000000000000000000000000000000005f52602260045260245ffd5b5f6002820490506001821680610b3d57607f821691505b602082108103610b5057610b4f610af9565b5b50919050565b5f819050815f5260205f209050919050565b5f6020601f8301049050919050565b5f82821b905092915050565b5f60088302610bb27fffffffffffffffffffffffffffffffffffffffffffffffffffffffffffffffff82610b77565b610bbc8683610b77565b95508019841693508086168417925050509392505050565b5f819050919050565b5f610bf7610bf2610bed846105ce565b610bd4565b6105ce565b9050919050565b5f819050919050565b610c1083610bdd565b610c24610c1c82610bfe565b848454610b83565b825550505050565b5f90565b610c38610c2c565b610c43818484610c07565b505050565b5b81811015610c6657610c5b5f82610c30565b600181019050610c49565b5050565b601f821115610cab57610c7c81610b56565b610c8584610b68565b81016020851015610c94578190505b610ca8610ca085610b68565b830182610c48565b50505b505050565b5f82821c905092915050565b5f610ccb5f1984600802610cb0565b1980831691505092915050565b5f610ce38383610cbc565b9150826002028217905092915050565b610cfc82610876565b67ffffffffffffffff811115610d1557610d14610644565b5b610d1f8254610b26565b610d2a828285610c6a565b5f60209050601f831160018114610d5b575f8415610d49578287015190505b610d538582610cd8565b865550610dba565b601f198416610d6986610b56565b5f5b82811015610d9057848901518255600182019150602085019450602081019050610d6b565b86831015610dad5784890151610da9601f891682610cbc565b8355505b6001600288020188555050505b505050505050565b5f604082019050610dd55f830185610867565b8181036020830152610de781846108b8565b90509392505050565b7f496e76616c6964206974656d20494400000000000000000000000000000000005f82015250565b5f610e24600f83610880565b9150610e2f82610df0565b602082019050919050565b5f6020820190508181035f830152610e5181610e18565b905091905056fea264697066735822122079a6a591e4f442b57690ab525229dbe0b07e4c936c165eb519c452816198398164736f6c63430008150033",
  "immutableReferences": {},
  "source": "// SPDX-License-Identifier: MIT\r\npragma solidity ^0.8.0;\r\n\r\ncontract MenuVoting {\r\n    struct MenuItem {\r\n        uint256 id;\r\n        string name;\r\n        uint256 votes;\r\n    }\r\n\r\n    MenuItem[] public menuItems;\r\n    mapping(uint256 => bool) public hasVoted;\r\n    mapping(address => bool) public isAdmin;\r\n\r\n    event MenuItemAdded(uint256 id, string name);\r\n    event Voted(uint256 itemId, address voter);\r\n\r\n    constructor() {\r\n        isAdmin[msg.sender] = true;\r\n    }\r\n\r\n    modifier onlyAdmin() {\r\n        require(isAdmin[msg.sender], \"Only admin can perform this action\");\r\n        _;\r\n    }\r\n\r\n    function addMenuItem(string memory _name) public onlyAdmin {\r\n        uint256 id = menuItems.length;\r\n        menuItems.push(MenuItem(id, _name, 0));\r\n        emit MenuItemAdded(id, _name);\r\n    }\r\n\r\n    function vote(uint256 _itemId) public {\r\n        require(!hasVoted[_itemId], \"Already voted for this item\");\r\n        menuItems[_itemId].votes++;\r\n        hasVoted[_itemId] = true;\r\n        emit Voted(_itemId, msg.sender);\r\n    }\r\n\r\n    function getMenuItem(uint256 _itemId) public view returns (uint256, string memory, uint256) {\r\n        require(_itemId < menuItems.length, \"Invalid item ID\");\r\n        MenuItem memory item = menuItems[_itemId];\r\n        return (item.id, item.name, item.votes);\r\n    }\r\n}\r\n",
  "sourcePath": "F:\\hackathon\\menu-voting-system\\menu-voting\\contracts\\MenuVoting.sol",
  "compiler": {
    "name": "solc",
    "version": "0.8.21+commit.d9974bed.Emscripten.clang"
  },
  "schemaVersion": "3.4.16",
  "updatedAt": "2024-03-30T10:57:19.059Z",
  "devdoc": {
    "kind": "dev",
    "methods": {},
    "version": 1
  },
  "userdoc": {
    "kind": "user",
    "methods": {},
    "version": 1
  }
}