{
  "contractName": "QRCodeGenerator",
  "abi": [
    {
      "inputs": [],
      "stateMutability": "nonpayable",
      "type": "constructor"
    },
    {
      "anonymous": false,
      "inputs": [
        {
          "indexed": false,
          "internalType": "uint256",
          "name": "itemId",
          "type": "uint256"
        },
        {
          "indexed": false,
          "internalType": "string",
          "name": "qrCode",
          "type": "string"
        }
      ],
      "name": "QRCodeGenerated",
      "type": "event"
    },
    {
      "inputs": [
        {
          "internalType": "address",
          "name": "",
          "type": "address"
        }
      ],
      "name": "isAdmin",
      "outputs": [
        {
          "internalType": "bool",
          "name": "",
          "type": "bool"
        }
      ],
      "stateMutability": "view",
      "type": "function"
    },
    {
      "inputs": [
        {
          "internalType": "uint256",
          "name": "",
          "type": "uint256"
        }
      ],
      "name": "qrCodes",
      "outputs": [
        {
          "internalType": "string",
          "name": "",
          "type": "string"
        }
      ],
      "stateMutability": "view",
      "type": "function"
    },
    {
      "inputs": [
        {
          "internalType": "uint256",
          "name": "_itemId",
          "type": "uint256"
        },
        {
          "internalType": "string",
          "name": "_qrCode",
          "type": "string"
        }
      ],
      "name": "generateQRCode",
      "outputs": [],
      "stateMutability": "nonpayable",
      "type": "function"
    },
    {
      "inputs": [
        {
          "internalType": "uint256",
          "name": "_itemId",
          "type": "uint256"
        }
      ],
      "name": "getQRCode",
      "outputs": [
        {
          "internalType": "string",
          "name": "",
          "type": "string"
        }
      ],
      "stateMutability": "view",
      "type": "function"
    }
  ],
  "bytecode": "0x608060405234801561000f575f80fd5b506001805f3373ffffffffffffffffffffffffffffffffffffffff1673ffffffffffffffffffffffffffffffffffffffff1681526020019081526020015f205f6101000a81548160ff021916908315150217905550610a56806100715f395ff3fe608060405234801561000f575f80fd5b506004361061004a575f3560e01c806324d7806c1461004e5780636bfd79af1461007e5780636ca800261461009a578063c3c1c2b2146100ca575b5f80fd5b610068600480360381019061006391906103a0565b6100fa565b60405161007591906103e5565b60405180910390f35b6100986004803603810190610093919061056d565b610117565b005b6100b460048036038101906100af91906105c7565b6101fb565b6040516100c1919061066c565b60405180910390f35b6100e460048036038101906100df91906105c7565b610295565b6040516100f1919061066c565b60405180910390f35b6001602052805f5260405f205f915054906101000a900460ff1681565b60015f3373ffffffffffffffffffffffffffffffffffffffff1673ffffffffffffffffffffffffffffffffffffffff1681526020019081526020015f205f9054906101000a900460ff166101a0576040517f08c379a0000000000000000000000000000000000000000000000000000000008152600401610197906106fc565b60405180910390fd5b805f808481526020019081526020015f2090816101bd9190610914565b507fe041a16e704f07ecadcc3a2adc4fee6dc8f69789a538d1ebaaed3ca699e3f96d82826040516101ef9291906109f2565b60405180910390a15050565b5f602052805f5260405f205f91509050805461021690610747565b80601f016020809104026020016040519081016040528092919081815260200182805461024290610747565b801561028d5780601f106102645761010080835404028352916020019161028d565b820191905f5260205f20905b81548152906001019060200180831161027057829003601f168201915b505050505081565b60605f808381526020019081526020015f2080546102b290610747565b80601f01602080910402602001604051908101604052809291908181526020018280546102de90610747565b80156103295780601f1061030057610100808354040283529160200191610329565b820191905f5260205f20905b81548152906001019060200180831161030c57829003601f168201915b50505050509050919050565b5f604051905090565b5f80fd5b5f80fd5b5f73ffffffffffffffffffffffffffffffffffffffff82169050919050565b5f61036f82610346565b9050919050565b61037f81610365565b8114610389575f80fd5b50565b5f8135905061039a81610376565b92915050565b5f602082840312156103b5576103b461033e565b5b5f6103c28482850161038c565b91505092915050565b5f8115159050919050565b6103df816103cb565b82525050565b5f6020820190506103f85f8301846103d6565b92915050565b5f819050919050565b610410816103fe565b811461041a575f80fd5b50565b5f8135905061042b81610407565b92915050565b5f80fd5b5f80fd5b5f601f19601f8301169050919050565b7f4e487b71000000000000000000000000000000000000000000000000000000005f52604160045260245ffd5b61047f82610439565b810181811067ffffffffffffffff8211171561049e5761049d610449565b5b80604052505050565b5f6104b0610335565b90506104bc8282610476565b919050565b5f67ffffffffffffffff8211156104db576104da610449565b5b6104e482610439565b9050602081019050919050565b828183375f83830152505050565b5f61051161050c846104c1565b6104a7565b90508281526020810184848401111561052d5761052c610435565b5b6105388482856104f1565b509392505050565b5f82601f83011261055457610553610431565b5b81356105648482602086016104ff565b91505092915050565b5f80604083850312156105835761058261033e565b5b5f6105908582860161041d565b925050602083013567ffffffffffffffff8111156105b1576105b0610342565b5b6105bd85828601610540565b9150509250929050565b5f602082840312156105dc576105db61033e565b5b5f6105e98482850161041d565b91505092915050565b5f81519050919050565b5f82825260208201905092915050565b5f5b8381101561062957808201518184015260208101905061060e565b5f8484015250505050565b5f61063e826105f2565b61064881856105fc565b935061065881856020860161060c565b61066181610439565b840191505092915050565b5f6020820190508181035f8301526106848184610634565b905092915050565b7f4f6e6c792061646d696e2063616e20706572666f726d207468697320616374695f8201527f6f6e000000000000000000000000000000000000000000000000000000000000602082015250565b5f6106e66022836105fc565b91506106f18261068c565b604082019050919050565b5f6020820190508181035f830152610713816106da565b9050919050565b7f4e487b71000000000000000000000000000000000000000000000000000000005f52602260045260245ffd5b5f600282049050600182168061075e57607f821691505b6020821081036107715761077061071a565b5b50919050565b5f819050815f5260205f209050919050565b5f6020601f8301049050919050565b5f82821b905092915050565b5f600883026107d37fffffffffffffffffffffffffffffffffffffffffffffffffffffffffffffffff82610798565b6107dd8683610798565b95508019841693508086168417925050509392505050565b5f819050919050565b5f61081861081361080e846103fe565b6107f5565b6103fe565b9050919050565b5f819050919050565b610831836107fe565b61084561083d8261081f565b8484546107a4565b825550505050565b5f90565b61085961084d565b610864818484610828565b505050565b5b818110156108875761087c5f82610851565b60018101905061086a565b5050565b601f8211156108cc5761089d81610777565b6108a684610789565b810160208510156108b5578190505b6108c96108c185610789565b830182610869565b50505b505050565b5f82821c905092915050565b5f6108ec5f19846008026108d1565b1980831691505092915050565b5f61090483836108dd565b9150826002028217905092915050565b61091d826105f2565b67ffffffffffffffff81111561093657610935610449565b5b6109408254610747565b61094b82828561088b565b5f60209050601f83116001811461097c575f841561096a578287015190505b61097485826108f9565b8655506109db565b601f19841661098a86610777565b5f5b828110156109b15784890151825560018201915060208501945060208101905061098c565b868310156109ce57848901516109ca601f8916826108dd565b8355505b6001600288020188555050505b505050505050565b6109ec816103fe565b82525050565b5f604082019050610a055f8301856109e3565b8181036020830152610a178184610634565b9050939250505056fea2646970667358221220ffcc6459f120adfc709bcc34037e86e64f54f59d9f1be22dba15f7e64014e67164736f6c63430008150033",
  "immutableReferences": {},
  "source": "// SPDX-License-Identifier: MIT\r\npragma solidity ^0.8.0;\r\n\r\ncontract QRCodeGenerator {\r\n    mapping(uint256 => string) public qrCodes;\r\n    mapping(address => bool) public isAdmin;\r\n\r\n    event QRCodeGenerated(uint256 itemId, string qrCode);\r\n\r\n    constructor() {\r\n        isAdmin[msg.sender] = true;\r\n    }\r\n\r\n    modifier onlyAdmin() {\r\n        require(isAdmin[msg.sender], \"Only admin can perform this action\");\r\n        _;\r\n    }\r\n\r\n    function generateQRCode(uint256 _itemId, string memory _qrCode) public onlyAdmin {\r\n        qrCodes[_itemId] = _qrCode;\r\n        emit QRCodeGenerated(_itemId, _qrCode);\r\n    }\r\n\r\n    function getQRCode(uint256 _itemId) public view returns (string memory) {\r\n        return qrCodes[_itemId];\r\n    }\r\n}\r\n",
  "sourcePath": "F:\\hackathon\\menu-voting-system\\menu-voting\\contracts\\QRCodeGenerator.sol",
  "compiler": {
    "name": "solc",
    "version": "0.8.21+commit.d9974bed.Emscripten.clang"
  },
  "schemaVersion": "3.4.16",
  "updatedAt": "2024-03-30T10:57:19.067Z",
  "devdoc": {
    "kind": "dev",
    "methods": {},
    "version": 1
  },
  "userdoc": {
    "kind": "user",
    "methods": {},
    "version": 1
  }
}