{
  "contractName": "RewardsSystem",
  "abi": [
    {
      "inputs": [],
      "stateMutability": "nonpayable",
      "type": "constructor"
    },
    {
      "anonymous": false,
      "inputs": [
        {
          "indexed": false,
          "internalType": "address",
          "name": "user",
          "type": "address"
        },
        {
          "indexed": false,
          "internalType": "uint256",
          "name": "points",
          "type": "uint256"
        }
      ],
      "name": "PointsEarned",
      "type": "event"
    },
    {
      "anonymous": false,
      "inputs": [
        {
          "indexed": false,
          "internalType": "address",
          "name": "user",
          "type": "address"
        },
        {
          "indexed": false,
          "internalType": "uint256",
          "name": "points",
          "type": "uint256"
        }
      ],
      "name": "PointsRedeemed",
      "type": "event"
    },
    {
      "inputs": [
        {
          "internalType": "address",
          "name": "",
          "type": "address"
        }
      ],
      "name": "isAdmin",
      "outputs": [
        {
          "internalType": "bool",
          "name": "",
          "type": "bool"
        }
      ],
      "stateMutability": "view",
      "type": "function"
    },
    {
      "inputs": [
        {
          "internalType": "address",
          "name": "",
          "type": "address"
        }
      ],
      "name": "rewardsPoints",
      "outputs": [
        {
          "internalType": "uint256",
          "name": "",
          "type": "uint256"
        }
      ],
      "stateMutability": "view",
      "type": "function"
    },
    {
      "inputs": [
        {
          "internalType": "address",
          "name": "_user",
          "type": "address"
        },
        {
          "internalType": "uint256",
          "name": "_points",
          "type": "uint256"
        }
      ],
      "name": "earnPoints",
      "outputs": [],
      "stateMutability": "nonpayable",
      "type": "function"
    },
    {
      "inputs": [
        {
          "internalType": "uint256",
          "name": "_points",
          "type": "uint256"
        }
      ],
      "name": "redeemPoints",
      "outputs": [],
      "stateMutability": "nonpayable",
      "type": "function"
    }
  ],
  "bytecode": "0x608060405234801561000f575f80fd5b506001805f3373ffffffffffffffffffffffffffffffffffffffff1673ffffffffffffffffffffffffffffffffffffffff1681526020019081526020015f205f6101000a81548160ff0219169083151502179055506106c1806100715f395ff3fe608060405234801561000f575f80fd5b506004361061004a575f3560e01c806324d7806c1461004e5780635628a1711461007e578063d909d5e3146100ae578063e92e92e7146100ca575b5f80fd5b6100686004803603810190610063919061039a565b6100e6565b60405161007591906103df565b60405180910390f35b6100986004803603810190610093919061039a565b610103565b6040516100a59190610410565b60405180910390f35b6100c860048036038101906100c39190610453565b610117565b005b6100e460048036038101906100df9190610491565b61022f565b005b6001602052805f5260405f205f915054906101000a900460ff1681565b5f602052805f5260405f205f915090505481565b60015f3373ffffffffffffffffffffffffffffffffffffffff1673ffffffffffffffffffffffffffffffffffffffff1681526020019081526020015f205f9054906101000a900460ff166101a0576040517f08c379a00000000000000000000000000000000000000000000000000000000081526004016101979061053c565b60405180910390fd5b805f808473ffffffffffffffffffffffffffffffffffffffff1673ffffffffffffffffffffffffffffffffffffffff1681526020019081526020015f205f8282546101eb9190610587565b925050819055507f2c4c0dc427a50c4a69d2fc184c47a311acf950d8d2f289fbaee64e83e9b2896782826040516102239291906105c9565b60405180910390a15050565b805f803373ffffffffffffffffffffffffffffffffffffffff1673ffffffffffffffffffffffffffffffffffffffff1681526020019081526020015f205410156102ae576040517f08c379a00000000000000000000000000000000000000000000000000000000081526004016102a59061063a565b60405180910390fd5b805f803373ffffffffffffffffffffffffffffffffffffffff1673ffffffffffffffffffffffffffffffffffffffff1681526020019081526020015f205f8282546102f99190610658565b925050819055507fc37df5d14f305277c1289e9a188a097cda6684189c95f785feb056cb77a8c91033826040516103319291906105c9565b60405180910390a150565b5f80fd5b5f73ffffffffffffffffffffffffffffffffffffffff82169050919050565b5f61036982610340565b9050919050565b6103798161035f565b8114610383575f80fd5b50565b5f8135905061039481610370565b92915050565b5f602082840312156103af576103ae61033c565b5b5f6103bc84828501610386565b91505092915050565b5f8115159050919050565b6103d9816103c5565b82525050565b5f6020820190506103f25f8301846103d0565b92915050565b5f819050919050565b61040a816103f8565b82525050565b5f6020820190506104235f830184610401565b92915050565b610432816103f8565b811461043c575f80fd5b50565b5f8135905061044d81610429565b92915050565b5f80604083850312156104695761046861033c565b5b5f61047685828601610386565b92505060206104878582860161043f565b9150509250929050565b5f602082840312156104a6576104a561033c565b5b5f6104b38482850161043f565b91505092915050565b5f82825260208201905092915050565b7f4f6e6c792061646d696e2063616e20706572666f726d207468697320616374695f8201527f6f6e000000000000000000000000000000000000000000000000000000000000602082015250565b5f6105266022836104bc565b9150610531826104cc565b604082019050919050565b5f6020820190508181035f8301526105538161051a565b9050919050565b7f4e487b71000000000000000000000000000000000000000000000000000000005f52601160045260245ffd5b5f610591826103f8565b915061059c836103f8565b92508282019050808211156105b4576105b361055a565b5b92915050565b6105c38161035f565b82525050565b5f6040820190506105dc5f8301856105ba565b6105e96020830184610401565b9392505050565b7f4e6f7420656e6f75676820706f696e74730000000000000000000000000000005f82015250565b5f6106246011836104bc565b915061062f826105f0565b602082019050919050565b5f6020820190508181035f83015261065181610618565b9050919050565b5f610662826103f8565b915061066d836103f8565b92508282039050818111156106855761068461055a565b5b9291505056fea2646970667358221220e2dec11cad6f108dea4a59c50928525bea3888bcf386d696d9baa2fc1699c02e64736f6c63430008150033",
  "immutableReferences": {},
  "source": "// SPDX-License-Identifier: MIT\r\npragma solidity ^0.8.0;\r\n\r\ncontract RewardsSystem {\r\n    mapping(address => uint256) public rewardsPoints;\r\n    mapping(address => bool) public isAdmin;\r\n\r\n    event PointsEarned(address user, uint256 points);\r\n    event PointsRedeemed(address user, uint256 points);\r\n\r\n    constructor() {\r\n        isAdmin[msg.sender] = true;\r\n    }\r\n\r\n    modifier onlyAdmin() {\r\n        require(isAdmin[msg.sender], \"Only admin can perform this action\");\r\n        _;\r\n    }\r\n\r\n    function earnPoints(address _user, uint256 _points) public onlyAdmin {\r\n        rewardsPoints[_user] += _points;\r\n        emit PointsEarned(_user, _points);\r\n    }\r\n\r\n    function redeemPoints(uint256 _points) public {\r\n        require(rewardsPoints[msg.sender] >= _points, \"Not enough points\");\r\n        rewardsPoints[msg.sender] -= _points;\r\n        emit PointsRedeemed(msg.sender, _points);\r\n    }\r\n}\r\n",
  "sourcePath": "F:\\hackathon\\menu-voting-system\\menu-voting\\contracts\\RewardsSystem.sol",
  "compiler": {
    "name": "solc",
    "version": "0.8.21+commit.d9974bed.Emscripten.clang"
  },
  "schemaVersion": "3.4.16",
  "updatedAt": "2024-03-30T10:57:19.072Z",
  "devdoc": {
    "kind": "dev",
    "methods": {},
    "version": 1
  },
  "userdoc": {
    "kind": "user",
    "methods": {},
    "version": 1
  }
}