{
  "contractName": "VendorDashboard",
  "abi": [
    {
      "inputs": [],
      "stateMutability": "nonpayable",
      "type": "constructor"
    },
    {
      "anonymous": false,
      "inputs": [
        {
          "indexed": false,
          "internalType": "address",
          "name": "vendor",
          "type": "address"
        },
        {
          "indexed": false,
          "internalType": "uint256",
          "name": "amount",
          "type": "uint256"
        }
      ],
      "name": "OrderPlaced",
      "type": "event"
    },
    {
      "anonymous": false,
      "inputs": [
        {
          "indexed": false,
          "internalType": "address",
          "name": "vendor",
          "type": "address"
        },
        {
          "indexed": false,
          "internalType": "uint256",
          "name": "rating",
          "type": "uint256"
        }
      ],
      "name": "RatingUpdated",
      "type": "event"
    },
    {
      "inputs": [
        {
          "internalType": "address",
          "name": "",
          "type": "address"
        }
      ],
      "name": "isAdmin",
      "outputs": [
        {
          "internalType": "bool",
          "name": "",
          "type": "bool"
        }
      ],
      "stateMutability": "view",
      "type": "function"
    },
    {
      "inputs": [
        {
          "internalType": "address",
          "name": "",
          "type": "address"
        }
      ],
      "name": "vendorMetrics",
      "outputs": [
        {
          "internalType": "uint256",
          "name": "totalSales",
          "type": "uint256"
        },
        {
          "internalType": "uint256",
          "name": "totalOrders",
          "type": "uint256"
        },
        {
          "internalType": "uint256",
          "name": "averageRating",
          "type": "uint256"
        }
      ],
      "stateMutability": "view",
      "type": "function"
    },
    {
      "inputs": [
        {
          "internalType": "address",
          "name": "_vendor",
          "type": "address"
        },
        {
          "internalType": "uint256",
          "name": "_amount",
          "type": "uint256"
        }
      ],
      "name": "placeOrder",
      "outputs": [],
      "stateMutability": "nonpayable",
      "type": "function"
    },
    {
      "inputs": [
        {
          "internalType": "address",
          "name": "_vendor",
          "type": "address"
        },
        {
          "internalType": "uint256",
          "name": "_rating",
          "type": "uint256"
        }
      ],
      "name": "updateRating",
      "outputs": [],
      "stateMutability": "nonpayable",
      "type": "function"
    }
  ],
  "bytecode": "0x608060405234801561000f575f80fd5b506001805f3373ffffffffffffffffffffffffffffffffffffffff1673ffffffffffffffffffffffffffffffffffffffff1681526020019081526020015f205f6101000a81548160ff02191690831515021790555061063b806100715f395ff3fe608060405234801561000f575f80fd5b506004361061004a575f3560e01c806324d7806c1461004e5780634e63f9b11461007e578063754951081461009a578063b25e2e68146100cc575b5f80fd5b61006860048036038101906100639190610377565b6100e8565b60405161007591906103bc565b60405180910390f35b61009860048036038101906100939190610408565b610105565b005b6100b460048036038101906100af9190610377565b61020f565b6040516100c393929190610455565b60405180910390f35b6100e660048036038101906100e19190610408565b610234565b005b6001602052805f5260405f205f915054906101000a900460ff1681565b60015f3373ffffffffffffffffffffffffffffffffffffffff1673ffffffffffffffffffffffffffffffffffffffff1681526020019081526020015f205f9054906101000a900460ff1661018e576040517f08c379a00000000000000000000000000000000000000000000000000000000081526004016101859061050a565b60405180910390fd5b805f808473ffffffffffffffffffffffffffffffffffffffff1673ffffffffffffffffffffffffffffffffffffffff1681526020019081526020015f20600201819055507fce13e498bb0636bb2524ac3412faa71320aa6c5166c02f75653c6631fa6a4ee48282604051610203929190610537565b60405180910390a15050565b5f602052805f5260405f205f91509050805f0154908060010154908060020154905083565b805f808473ffffffffffffffffffffffffffffffffffffffff1673ffffffffffffffffffffffffffffffffffffffff1681526020019081526020015f205f015f828254610281919061058b565b925050819055505f808373ffffffffffffffffffffffffffffffffffffffff1673ffffffffffffffffffffffffffffffffffffffff1681526020019081526020015f206001015f8154809291906102d7906105be565b91905055507ff6f21bda482268b6851cb7d134c9ef42acd2e610afc2ce82688cd2799adacca3828260405161030d929190610537565b60405180910390a15050565b5f80fd5b5f73ffffffffffffffffffffffffffffffffffffffff82169050919050565b5f6103468261031d565b9050919050565b6103568161033c565b8114610360575f80fd5b50565b5f813590506103718161034d565b92915050565b5f6020828403121561038c5761038b610319565b5b5f61039984828501610363565b91505092915050565b5f8115159050919050565b6103b6816103a2565b82525050565b5f6020820190506103cf5f8301846103ad565b92915050565b5f819050919050565b6103e7816103d5565b81146103f1575f80fd5b50565b5f81359050610402816103de565b92915050565b5f806040838503121561041e5761041d610319565b5b5f61042b85828601610363565b925050602061043c858286016103f4565b9150509250929050565b61044f816103d5565b82525050565b5f6060820190506104685f830186610446565b6104756020830185610446565b6104826040830184610446565b949350505050565b5f82825260208201905092915050565b7f4f6e6c792061646d696e2063616e20706572666f726d207468697320616374695f8201527f6f6e000000000000000000000000000000000000000000000000000000000000602082015250565b5f6104f460228361048a565b91506104ff8261049a565b604082019050919050565b5f6020820190508181035f830152610521816104e8565b9050919050565b6105318161033c565b82525050565b5f60408201905061054a5f830185610528565b6105576020830184610446565b9392505050565b7f4e487b71000000000000000000000000000000000000000000000000000000005f52601160045260245ffd5b5f610595826103d5565b91506105a0836103d5565b92508282019050808211156105b8576105b761055e565b5b92915050565b5f6105c8826103d5565b91507fffffffffffffffffffffffffffffffffffffffffffffffffffffffffffffffff82036105fa576105f961055e565b5b60018201905091905056fea2646970667358221220a5c37d38466587a1e21f7b55fc43f30780159b8aa84afeb944d40fe8a353177164736f6c63430008150033",
  "immutableReferences": {},
  "source": "// SPDX-License-Identifier: MIT\r\npragma solidity ^0.8.0;\r\n\r\ncontract VendorDashboard {\r\n    struct VendorMetrics {\r\n        uint256 totalSales;\r\n        uint256 totalOrders;\r\n        uint256 averageRating;\r\n    }\r\n\r\n    mapping(address => VendorMetrics) public vendorMetrics;\r\n    mapping(address => bool) public isAdmin;\r\n\r\n    event OrderPlaced(address vendor, uint256 amount);\r\n    event RatingUpdated(address vendor, uint256 rating);\r\n\r\n    constructor() {\r\n        isAdmin[msg.sender] = true;\r\n    }\r\n\r\n    modifier onlyAdmin() {\r\n        require(isAdmin[msg.sender], \"Only admin can perform this action\");\r\n        _;\r\n    }\r\n\r\n    function placeOrder(address _vendor, uint256 _amount) public {\r\n        vendorMetrics[_vendor].totalSales += _amount;\r\n        vendorMetrics[_vendor].totalOrders++;\r\n        emit OrderPlaced(_vendor, _amount);\r\n    }\r\n\r\n    function updateRating(address _vendor, uint256 _rating) public onlyAdmin {\r\n        vendorMetrics[_vendor].averageRating = _rating;\r\n        emit RatingUpdated(_vendor, _rating);\r\n    }\r\n}\r\n",
  "sourcePath": "F:\\hackathon\\menu-voting-system\\menu-voting\\contracts\\VenderDashboard.sol",
  "compiler": {
    "name": "solc",
    "version": "0.8.21+commit.d9974bed.Emscripten.clang"
  },
  "schemaVersion": "3.4.16",
  "updatedAt": "2024-03-30T10:57:19.075Z",
  "devdoc": {
    "kind": "dev",
    "methods": {},
    "version": 1
  },
  "userdoc": {
    "kind": "user",
    "methods": {},
    "version": 1
  }
}